{
  "config": {
    "chainId": 1981,
    "berlinBlock": 0,
    "qbft": {
      "blockperiodseconds": 5,
      "epochlength": 30000,
      "requesttimeoutseconds": 10
    }
  },
  "nonce": "0x0",
  "timestamp": "0x58ee40ba",
  "gasLimit": "0x1fffffffffffff",
  "difficulty": "0x1",
  "mixHash": "0x0000000000000000000000000000000000000000000000000000000000000000",
  "coinbase": "0x0000000000000000000000000000000000000000",
  "alloc": {
    "0xff13f84122242beded79494003ae4401455b1a66": {
      "balance": "0xad78ebc5ac6200000000"
    },
    "0x63ab40fd979cc1d1d2817d1ec7a72c439d72d958": {
      "balance": "0xad78ebc5ac6200000000"
    },
    "0x7df3bbaf272fc5b67d8ec7002d1d7e1d63f0c825": {
      "balance": "0xad78ebc5ac6200000000"
    },
    "0x7E5F4552091A69125d5DfCb7b8C2659029395Bdf": {
      "balance": "0xad78ebc5ac6200000000"
    }
  },
  "number": "0x0",
  "gasUsed": "0x0",
  "parentHash": "0x0000000000000000000000000000000000000000000000000000000000000000",
  "extraData": "0xf865a00000000000000000000000000000000000000000000000000000000000000000f83f94ff13f84122242beded79494003ae4401455b1a669463ab40fd979cc1d1d2817d1ec7a72c439d72d958947df3bbaf272fc5b67d8ec7002d1d7e1d63f0c825c080c0"
}
